S00F0000626C696E6B69652E7372656337
S11300000C9434000C943E000C943E000C943E007E
S11300100C943E000C943E000C944A000C943E0058
S11300200C943E000C943E000C943E000C943E0054
S11300300C943E000C9440000C943E000C943E0042
S11300400C943E000C943E000C943E000C943E0034
S11300500C943E000C943E000C943E000C943E0024
S11300600C943E000C943E0011241FBECFEFD8E048
S1130070DEBFCDBF0E9454000C94A3000C9400007A
S11300801F920F920FB60F9211240F900FBE0F9074
S11300901F9018951F920F920FB60F9211240F9074
S11300A00FBE0F901F90189581E284B92CEF32ECAB
S11300B030938500209384001092800095E0909303
S11300C0810091E090936F007894E0E6F0E098E18D
S11300D09083808380818064808383B7846083BFBE
S11300E083B7816083BF95B181E2982795B92FEFDB
S11300F033ED90E3215030409040E1F700C0000020
S113010095B1982795B92FEF33ED90E32150304006
S11301109040E1F700C0000095B1982795B92FEF02
S113012033ED90E3215030409040E1F700C00000EF
S113013095B1892785B980E090E0843091059CF6DB
S10D014088950196FACFF894FFCFDA
S9030000FC
