S0110000506F776572536176652E7372656377
S11300000C9434000C943E000C943E000C943E007E
S11300100C943E000C943E000C945B000C943E0047
S11300200C943E000C943E000C943E000C943E0054
S11300300C943E000C9440000C943E000C943E0042
S11300400C943E000C943E000C943E000C943E0034
S11300500C943E000C943E000C943E000C943E0024
S11300600C943E000C943E0011241FBECFEFD8E048
S1130070DEBFCDBF0E9491000C949C000C94000044
S11300801F920F920FB60F9211248F939F9384B1F6
S1130090806284B995B180E2892785B98CEF92ECAE
S11300A090938500809384009F918F910F900FBE51
S11300B00F901F9018951F920F920FB60F92112454
S11300C00F900FBE0F901F9018958CEF92EC9093A9
S11300D08500809384001092800085E080938100E5
S11300E081E080936F007894089514BC15BC84B5A6
S11300F0836084BD84B5806884BD84B5806284BD1A
S113010085B5846085BD8AB180668AB908958130D9
S1130110910511F417BC68BD029711F467BD18BCB2
S113012008950E9465000E9475006BE470E081E010
S10F013090E00E948700F9CFF894FFCF04
S9030000FC
